:0300000002019565
:0100030032CA
:03000B0002018768
:0100130032BA
:01001B0032B2
:0100230032AA
:01002B0032A2
:10002C00C000785076007853A68208A6837855765F
:10003C0001D00022C00078557600D000227855E619
:10004C00700122C000C002C003C004C005C006C0BD
:10005C0007785006E6543FF670677853E6FA08E6E0
:10006C004A70527851E6F58208E6F583740093FAEB
:10007C00740193FB740293FC740393FD740493FE5C
:10008C00FFEE540FFEEF54F0FFEF7007EE1201126B
:10009C000200AFEF94107007EE1201340200AF783B
:1000AC005576007851E62405F608E63400F67853C8
:1000BC00ECF608EDF67853E6C39401F608E69400E6
:1000CC00F6D007D006D005D004D003D002D0002241
:1000DC00C000C001C005C0067D08783079407E01A3
:1000EC00E627F60809E637F6941050027E00080958
:1000FC00DDEEEE139297D006D005D001D00022127F
:10010C0000DC12004922C001C00475F002A4FC7985
:10011C0040E92CF977000977007930E92CF9770060
:10012C00097700D004D00122C001C00475F002A4EC
:10013C00FC7940E92CF9EBF709EAF7D004D001225D
:10014C00C000C001C0057D087830794076FF77008B
:10015C00080976FF77000809DDF278557600D0059E
:10016C00D001D00022438E08E58954F04401F58972
:10017C00758CFC758A30D2A9D28C22C28C758CFC01
:10018C00758A30D28C12010B3275817F75B1007576
:10019C00B20075B30075B40075AD0075AD001201F9
:1001AC007112014C74017A097B3012013474027A99
:1001BC00077BA812013474037A067B20120134D217
:0401CC00AF0201CDB0
:00000001FF
