:0300000002018278
:0100030032CA
:03000B000201747B
:0100130032BA
:01001B0032B2
:0100230032AA
:01002B0032A2
:10002C000102030405060707080A7855E670012249
:10003C00C000C002C003C004C005C006C007785091
:10004C0006E6543FF670677853E6FA08E64A7052B3
:10005C007851E6F58208E6F583740093FA740193FF
:10006C00FB740293FC740393FD740493FEFFEE5433
:10007C000FFEEF54F0FFEF7007EE1200FF02009C32
:10008C00EF94107007EE12012102009C7855760057
:10009C007851E62405F608E63400F67853ECF608B9
:1000AC00EDF67853E6C39401F608E69400F6D00713
:1000BC00D006D005D004D003D002D00022C000C09E
:1000CC0001C005C0067D08783079407E01E627F630
:1000DC000809E637F6941050027E000809DDEEEEB2
:1000EC00139297D006D005D001D000221200C9126D
:1000FC00003622C001C00475F002A4FC7940E92C42
:10010C00F977000977007930E92CF9770009770045
:10011C00D004D00122C001C00475F002A4FC7940C7
:10012C00E92CF9EBF709EAF7D004D00122C000C0A2
:10013C0001C0057D087830794076FF770008097694
:10014C00FF77000809DDF278557600D005D001D094
:10015C000022438E08E58954F04401F589758CFC26
:10016C00758A30D2A9D28C22C28C758CFC758A30DF
:10017C00D28C1200F83275817F75B10075B20075A2
:10018C00B30075B40075AD0075AD0012015E1201BF
:10019C003974017A097B3012012174027A077BA829
:1001AC0012012174037A067B20120121D2AF0201C5
:0101BC00BA88
:00000001FF
