:0300000002009566
:0100030032CA
:03000B0002008769
:0100130032BA
:01001B0032B2
:0100230032AA
:01002B0032A2
:10002C007D08783079407E01E627F60809E637F638
:10003C00941050027E000809DDEEEE1392972222F6
:10004C0075F002A4FC7940E92CF9EBF709EAF722E8
:10005C007D087830794076FF7700080976FF7700C5
:10006C000809DDF222438E08E58954F04401F58934
:10007C00758CFC758A30D2A9D28C22C28C758CFC02
:10008C00758A30D28C12002C3275817F75B1007557
:10009C00B20075B30075B40075AD0075AD001200FB
:1000AC007112005C74017A097B3012004C74027A74
:1000BC00077BA812004C74037A067B2012004CD2EA
:0400CC00AF0200CDB2
:00000001FF
