:030000000201A05A
:0100030032CA
:03000B0002013FB0
:0100130032BA
:01001B0032B2
:0100230032AA
:03002B0002016A65
:10002E00C000788500D8FDD00022C000C00179281C
:10003E007868D8FED9FADAF6D001D00022D294121E
:10004E00002EC29422A2E79283A2E69282A2E592A9
:10005E0081A2E4928012004B12002EA2E39283A2A0
:10006E00E29282A2E19281A2E0928012004B22D211
:10007E0093020053C293020053C294C0027A281214
:10008E000038D0027433120082743312008274323C
:10009E001200827428120082740C120082740112F3
:1000AE000082C0027A02120038D00222E493600667
:1000BE0012007DA380F62244404480020082C0E0FC
:1000CE00E8C4540F443012007DE8540F443012003F
:0400DE007DD0E022CF
:1000E2007D08783379437E00E627F60809E637F67D
:1000F200941040027EFF0809DDEEEE139297222251
:10010200227D0878337943760077E0080976007714
:10011200060809DDF2224243445F636F756E74651F
:10012200723A2078782000438E08E58954F0440121
:10013200F589758CFC758A30D2A9D28C22C28C7555
:100142008CFC758A30D28C1200E23275C80075CDF3
:10015200C175CC8043C98075CBC175CA80E4F530C6
:10016200F531439B80D2CA22C2CFB284C0E0C0D054
:100172000530E53070020531E530B4F41CE531B4E8
:100182000117D200B28CE4F530F531E53230960435
:10019200240180022499D4F532D0D0D0E032758186
:1001A2007F75B10075B20075B30075B40075AD000E
:1001B20075AD0012012912014DD2AF120087C0E0C5
:1001C2007401141200C7D0E0C083C082C0E0900165
:1001D200181200BAD0E0D082D083D2007532001259
:1001E200010320951CC0027A32120038D0022095F9
:1001F200103095FDC2CAE4F530F531F532D2CA802D
:10020200033000DEC200C0E0740E141200C7D0E05A
:0C021200C000A8321200CCD0000201E4B1
:00000001FF
